{
  "_format": "hh-sol-artifact-1",
  "contractName": "Proof1",
  "sourceName": "contracts/ProofContract1.sol",
  "abi": [
    {
      "anonymous": false,
      "inputs": [
        {
          "indexed": true,
          "internalType": "uint256",
          "name": "index",
          "type": "uint256"
        },
        {
          "indexed": true,
          "internalType": "bytes32",
          "name": "key",
          "type": "bytes32"
        }
      ],
      "name": "LogNew",
      "type": "event"
    },
    {
      "anonymous": false,
      "inputs": [
        {
          "indexed": true,
          "internalType": "uint256",
          "name": "index",
          "type": "uint256"
        },
        {
          "indexed": true,
          "internalType": "bytes32",
          "name": "key",
          "type": "bytes32"
        }
      ],
      "name": "LogRemove",
      "type": "event"
    },
    {
      "anonymous": false,
      "inputs": [
        {
          "indexed": true,
          "internalType": "uint256",
          "name": "index",
          "type": "uint256"
        },
        {
          "indexed": true,
          "internalType": "bytes32",
          "name": "key",
          "type": "bytes32"
        }
      ],
      "name": "LogUpdate",
      "type": "event"
    },
    {
      "inputs": [],
      "name": "count",
      "outputs": [
        {
          "internalType": "uint256",
          "name": "counter",
          "type": "uint256"
        }
      ],
      "stateMutability": "view",
      "type": "function"
    },
    {
      "inputs": [
        {
          "internalType": "bytes32",
          "name": "key",
          "type": "bytes32"
        }
      ],
      "name": "get",
      "outputs": [
        {
          "components": [
            {
              "internalType": "address",
              "name": "addedBy",
              "type": "address"
            },
            {
              "internalType": "address",
              "name": "target",
              "type": "address"
            },
            {
              "internalType": "uint256",
              "name": "validUntil",
              "type": "uint256"
            },
            {
              "internalType": "bytes16",
              "name": "superceeds",
              "type": "bytes16"
            },
            {
              "internalType": "bytes",
              "name": "CID",
              "type": "bytes"
            }
          ],
          "internalType": "struct ProofLib.Value",
          "name": "value",
          "type": "tuple"
        }
      ],
      "stateMutability": "view",
      "type": "function"
    },
    {
      "inputs": [
        {
          "internalType": "uint256",
          "name": "index",
          "type": "uint256"
        }
      ],
      "name": "getAtIndex",
      "outputs": [
        {
          "components": [
            {
              "internalType": "address",
              "name": "addedBy",
              "type": "address"
            },
            {
              "internalType": "address",
              "name": "target",
              "type": "address"
            },
            {
              "internalType": "uint256",
              "name": "validUntil",
              "type": "uint256"
            },
            {
              "internalType": "bytes16",
              "name": "superceeds",
              "type": "bytes16"
            },
            {
              "internalType": "bytes",
              "name": "CID",
              "type": "bytes"
            }
          ],
          "internalType": "struct ProofLib.Value",
          "name": "value",
          "type": "tuple"
        }
      ],
      "stateMutability": "view",
      "type": "function"
    },
    {
      "inputs": [
        {
          "components": [
            {
              "internalType": "address",
              "name": "addedBy",
              "type": "address"
            },
            {
              "internalType": "address",
              "name": "target",
              "type": "address"
            },
            {
              "internalType": "uint256",
              "name": "validUntil",
              "type": "uint256"
            },
            {
              "internalType": "bytes16",
              "name": "superceeds",
              "type": "bytes16"
            },
            {
              "internalType": "bytes",
              "name": "CID",
              "type": "bytes"
            }
          ],
          "internalType": "struct ProofLib.Value",
          "name": "v",
          "type": "tuple"
        }
      ],
      "name": "getKey",
      "outputs": [
        {
          "internalType": "bytes32",
          "name": "key",
          "type": "bytes32"
        }
      ],
      "stateMutability": "view",
      "type": "function"
    },
    {
      "inputs": [
        {
          "internalType": "uint256",
          "name": "index",
          "type": "uint256"
        }
      ],
      "name": "getKeyAtIndex",
      "outputs": [
        {
          "internalType": "bytes32",
          "name": "key",
          "type": "bytes32"
        }
      ],
      "stateMutability": "view",
      "type": "function"
    },
    {
      "inputs": [
        {
          "components": [
            {
              "internalType": "address",
              "name": "addedBy",
              "type": "address"
            },
            {
              "internalType": "address",
              "name": "target",
              "type": "address"
            },
            {
              "internalType": "uint256",
              "name": "validUntil",
              "type": "uint256"
            },
            {
              "internalType": "bytes16",
              "name": "superceeds",
              "type": "bytes16"
            },
            {
              "internalType": "bytes",
              "name": "CID",
              "type": "bytes"
            }
          ],
          "internalType": "struct ProofLib.Value",
          "name": "value",
          "type": "tuple"
        }
      ],
      "name": "insert",
      "outputs": [
        {
          "internalType": "uint256",
          "name": "index",
          "type": "uint256"
        }
      ],
      "stateMutability": "nonpayable",
      "type": "function"
    },
    {
      "inputs": [
        {
          "internalType": "bytes32",
          "name": "key",
          "type": "bytes32"
        }
      ],
      "name": "isInstance",
      "outputs": [
        {
          "internalType": "bool",
          "name": "isIndeed",
          "type": "bool"
        }
      ],
      "stateMutability": "view",
      "type": "function"
    },
    {
      "inputs": [
        {
          "internalType": "bytes32",
          "name": "key",
          "type": "bytes32"
        }
      ],
      "name": "remove",
      "outputs": [
        {
          "internalType": "uint256",
          "name": "index",
          "type": "uint256"
        }
      ],
      "stateMutability": "nonpayable",
      "type": "function"
    },
    {
      "inputs": [
        {
          "internalType": "bytes32",
          "name": "",
          "type": "bytes32"
        }
      ],
      "name": "values",
      "outputs": [
        {
          "internalType": "uint256",
          "name": "index",
          "type": "uint256"
        },
        {
          "components": [
            {
              "internalType": "address",
              "name": "addedBy",
              "type": "address"
            },
            {
              "internalType": "address",
              "name": "target",
              "type": "address"
            },
            {
              "internalType": "uint256",
              "name": "validUntil",
              "type": "uint256"
            },
            {
              "internalType": "bytes16",
              "name": "superceeds",
              "type": "bytes16"
            },
            {
              "internalType": "bytes",
              "name": "CID",
              "type": "bytes"
            }
          ],
          "internalType": "struct ProofLib.Value",
          "name": "value",
          "type": "tuple"
        }
      ],
      "stateMutability": "view",
      "type": "function"
    }
  ],
  "bytecode": "0x6080604052600160f81b7effffffffffffffffffffffffffffffffffffffffffffffffffffffffffffff19166000806101000a8154816fffffffffffffffffffffffffffffffff021916908360801c021790555034801561005f57600080fd5b506113b98061006f6000396000f3fe608060405234801561001057600080fd5b50600436106100935760003560e01c80637faec85f116100665780637faec85f146101465780638df7c5ce146101765780638eaa6ac0146101a657806395bc2673146101d6578063ccc2195f1461020657610093565b806306661abd146100985780631b26aafd146100b657806335ee3c5c146100e6578063663037ac14610116575b600080fd5b6100a0610237565b6040516100ad9190610b10565b60405180910390f35b6100d060048036038101906100cb9190610b6b565b610244565b6040516100dd9190610d32565b60405180910390f35b61010060048036038101906100fb9190610d8a565b610264565b60405161010d9190610dd2565b60405180910390f35b610130600480360381019061012b9190610b6b565b6102bb565b60405161013d9190610dfc565b60405180910390f35b610160600480360381019061015b9190611056565b6102e3565b60405161016d9190610dfc565b60405180910390f35b610190600480360381019061018b9190611056565b610333565b60405161019d9190610b10565b60405180910390f35b6101c060048036038101906101bb9190610d8a565b6104d1565b6040516101cd9190610d32565b60405180910390f35b6101f060048036038101906101eb9190610d8a565b6106ce565b6040516101fd9190610b10565b60405180910390f35b610220600480360381019061021b9190610d8a565b610833565b60405161022e92919061109f565b60405180910390f35b6000600280549050905090565b61024c6109e6565b61025d610258836102bb565b6104d1565b9050919050565b600080600280549050141561027c57600090506102b6565b8160026001600085815260200190815260200160002060000154815481106102a7576102a66110cf565b5b90600052602060002001541490505b919050565b6000600282815481106102d1576102d06110cf565b5b90600052602060002001549050919050565b60008060009054906101000a900460801b82600001518360200151846080015160405160200161031694939291906111a3565b604051602081830303815290604052805190602001209050919050565b60008061033f836102e3565b9050826001600083815260200190815260200160002060010160008201518160000160006101000a81548173ffffffffffffffffffffffffffffffffffffffff021916908373ffffffffffffffffffffffffffffffffffffffff16021790555060208201518160010160006101000a81548173ffffffffffffffffffffffffffffffffffffffff021916908373ffffffffffffffffffffffffffffffffffffffff1602179055506040820151816002015560608201518160030160006101000a8154816fffffffffffffffffffffffffffffffff021916908360801c0217905550608082015181600401908051906020019061043c929190610a54565b509050506002805490506001600083815260200190815260200160002060000181905550600281908060018154018082558091505060019003906000526020600020016000909190919091505580827f7f48a163442147fea68a000073a5e1adf73434d806285469ea50af9c73e61c9960405160405180910390a360016002805490506104c9919061121c565b915050919050565b6104d96109e6565b6104e282610264565b610521576040517f08c379a0000000000000000000000000000000000000000000000000000000008152600401610518906112d3565b60405180910390fd5b600160008381526020019081526020016000206001016040518060a00160405290816000820160009054906101000a900473ffffffffffffffffffffffffffffffffffffffff1673ffffffffffffffffffffffffffffffffffffffff1673ffffffffffffffffffffffffffffffffffffffff1681526020016001820160009054906101000a900473ffffffffffffffffffffffffffffffffffffffff1673ffffffffffffffffffffffffffffffffffffffff1673ffffffffffffffffffffffffffffffffffffffff168152602001600282015481526020016003820160009054906101000a900460801b6fffffffffffffffffffffffffffffffff19166fffffffffffffffffffffffffffffffff1916815260200160048201805461064590611322565b80601f016020809104026020016040519081016040528092919081815260200182805461067190611322565b80156106be5780601f10610693576101008083540402835291602001916106be565b820191906000526020600020905b8154815290600101906020018083116106a157829003601f168201915b5050505050815250509050919050565b60006106d982610264565b610718576040517f08c379a000000000000000000000000000000000000000000000000000000000815260040161070f906112d3565b60405180910390fd5b600060016000848152602001908152602001600020600001549050600060026001600280549050610749919061121c565b8154811061075a576107596110cf565b5b90600052602060002001549050806002838154811061077c5761077b6110cf565b5b906000526020600020018190555081600160008381526020019081526020016000206000018190555060028054806107b7576107b6611354565b5b6001900381819060005260206000200160009055905583827f3e5f95a7b68cd69de481447f1f138bdb428e7dab64062ddbc0f2176244bfc29060405160405180910390a380827f3449e6b4b8dbaeb23f4e62233d6dc67e4cf3316970d94664d05f381f7ae2d4b160405160405180910390a38192505050919050565b6001602052806000526040600020600091509050806000015490806001016040518060a00160405290816000820160009054906101000a900473ffffffffffffffffffffffffffffffffffffffff1673ffffffffffffffffffffffffffffffffffffffff1673ffffffffffffffffffffffffffffffffffffffff1681526020016001820160009054906101000a900473ffffffffffffffffffffffffffffffffffffffff1673ffffffffffffffffffffffffffffffffffffffff1673ffffffffffffffffffffffffffffffffffffffff168152602001600282015481526020016003820160009054906101000a900460801b6fffffffffffffffffffffffffffffffff19166fffffffffffffffffffffffffffffffff1916815260200160048201805461095f90611322565b80601f016020809104026020016040519081016040528092919081815260200182805461098b90611322565b80156109d85780601f106109ad576101008083540402835291602001916109d8565b820191906000526020600020905b8154815290600101906020018083116109bb57829003601f168201915b505050505081525050905082565b6040518060a00160405280600073ffffffffffffffffffffffffffffffffffffffff168152602001600073ffffffffffffffffffffffffffffffffffffffff1681526020016000815260200160006fffffffffffffffffffffffffffffffff19168152602001606081525090565b828054610a6090611322565b90600052602060002090601f016020900481019282610a825760008555610ac9565b82601f10610a9b57805160ff1916838001178555610ac9565b82800160010185558215610ac9579182015b82811115610ac8578251825591602001919060010190610aad565b5b509050610ad69190610ada565b5090565b5b80821115610af3576000816000905550600101610adb565b5090565b6000819050919050565b610b0a81610af7565b82525050565b6000602082019050610b256000830184610b01565b92915050565b6000604051905090565b600080fd5b600080fd5b610b4881610af7565b8114610b5357600080fd5b50565b600081359050610b6581610b3f565b92915050565b600060208284031215610b8157610b80610b35565b5b6000610b8f84828501610b56565b91505092915050565b600073ffffffffffffffffffffffffffffffffffffffff82169050919050565b6000610bc382610b98565b9050919050565b610bd381610bb8565b82525050565b610be281610af7565b82525050565b60007fffffffffffffffffffffffffffffffff0000000000000000000000000000000082169050919050565b610c1d81610be8565b82525050565b600081519050919050565b600082825260208201905092915050565b60005b83811015610c5d578082015181840152602081019050610c42565b83811115610c6c576000848401525b50505050565b6000601f19601f8301169050919050565b6000610c8e82610c23565b610c988185610c2e565b9350610ca8818560208601610c3f565b610cb181610c72565b840191505092915050565b600060a083016000830151610cd46000860182610bca565b506020830151610ce76020860182610bca565b506040830151610cfa6040860182610bd9565b506060830151610d0d6060860182610c14565b5060808301518482036080860152610d258282610c83565b9150508091505092915050565b60006020820190508181036000830152610d4c8184610cbc565b905092915050565b6000819050919050565b610d6781610d54565b8114610d7257600080fd5b50565b600081359050610d8481610d5e565b92915050565b600060208284031215610da057610d9f610b35565b5b6000610dae84828501610d75565b91505092915050565b60008115159050919050565b610dcc81610db7565b82525050565b6000602082019050610de76000830184610dc3565b92915050565b610df681610d54565b82525050565b6000602082019050610e116000830184610ded565b92915050565b600080fd5b7f4e487b7100000000000000000000000000000000000000000000000000000000600052604160045260246000fd5b610e5482610c72565b810181811067ffffffffffffffff82111715610e7357610e72610e1c565b5b80604052505050565b6000610e86610b2b565b9050610e928282610e4b565b919050565b600080fd5b610ea581610bb8565b8114610eb057600080fd5b50565b600081359050610ec281610e9c565b92915050565b610ed181610be8565b8114610edc57600080fd5b50565b600081359050610eee81610ec8565b92915050565b600080fd5b600080fd5b600067ffffffffffffffff821115610f1957610f18610e1c565b5b610f2282610c72565b9050602081019050919050565b82818337600083830152505050565b6000610f51610f4c84610efe565b610e7c565b905082815260208101848484011115610f6d57610f6c610ef9565b5b610f78848285610f2f565b509392505050565b600082601f830112610f9557610f94610ef4565b5b8135610fa5848260208601610f3e565b91505092915050565b600060a08284031215610fc457610fc3610e17565b5b610fce60a0610e7c565b90506000610fde84828501610eb3565b6000830152506020610ff284828501610eb3565b602083015250604061100684828501610b56565b604083015250606061101a84828501610edf565b606083015250608082013567ffffffffffffffff81111561103e5761103d610e97565b5b61104a84828501610f80565b60808301525092915050565b60006020828403121561106c5761106b610b35565b5b600082013567ffffffffffffffff81111561108a57611089610b3a565b5b61109684828501610fae565b91505092915050565b60006040820190506110b46000830185610b01565b81810360208301526110c68184610cbc565b90509392505050565b7f4e487b7100000000000000000000000000000000000000000000000000000000600052603260045260246000fd5b6000819050919050565b61111961111482610be8565b6110fe565b82525050565b60008160601b9050919050565b60006111378261111f565b9050919050565b60006111498261112c565b9050919050565b61116161115c82610bb8565b61113e565b82525050565b600081905092915050565b600061117d82610c23565b6111878185611167565b9350611197818560208601610c3f565b80840191505092915050565b60006111af8287611108565b6010820191506111bf8286611150565b6014820191506111cf8285611150565b6014820191506111df8284611172565b915081905095945050505050565b7f4e487b7100000000000000000000000000000000000000000000000000000000600052601160045260246000fd5b600061122782610af7565b915061123283610af7565b925082821015611245576112446111ed565b5b828203905092915050565b600082825260208201905092915050565b7f4b657920646f6573206e6f742062656c6f6e6720746f20616e20696e7374616e60008201527f6365000000000000000000000000000000000000000000000000000000000000602082015250565b60006112bd602283611250565b91506112c882611261565b604082019050919050565b600060208201905081810360008301526112ec816112b0565b9050919050565b7f4e487b7100000000000000000000000000000000000000000000000000000000600052602260045260246000fd5b6000600282049050600182168061133a57607f821691505b6020821081141561134e5761134d6112f3565b5b50919050565b7f4e487b7100000000000000000000000000000000000000000000000000000000600052603160045260246000fdfea264697066735822122003fdb653bfa7b9f0c42dfd8fcdac6f6b61c5cdb600b470e778bf761e8299168764736f6c63430008090033",
  "linkReferences": {},
  "deployedLinkReferences": {}
}