{
  "_format": "hh-sol-artifact-1",
  "contractName": "Faucet",
  "sourceName": "contracts/Faucet.sol",
  "abi": [
    {
      "inputs": [],
      "stateMutability": "payable",
      "type": "constructor"
    },
    {
      "inputs": [],
      "name": "gimme",
      "outputs": [],
      "stateMutability": "nonpayable",
      "type": "function"
    },
    {
      "inputs": [
        {
          "internalType": "address payable",
          "name": "receiver",
          "type": "address"
        }
      ],
      "name": "send",
      "outputs": [],
      "stateMutability": "nonpayable",
      "type": "function"
    },
    {
      "stateMutability": "payable",
      "type": "receive"
    }
  ],
  "bytecode": "0x608060405266038d7ea4c680006000556101be8061001e6000396000f3fe60806040526004361061002d5760003560e01c80633e58c58c14610039578063de82efb41461006257610034565b3661003457005b600080fd5b34801561004557600080fd5b50610060600480360381019061005b919061015b565b610079565b005b34801561006e57600080fd5b506100776100e7565b005b6000548173ffffffffffffffffffffffffffffffffffffffff163110156100e4578073ffffffffffffffffffffffffffffffffffffffff166108fc6000549081150290604051600060405180830381858888f193505050501580156100e2573d6000803e3d6000fd5b505b50565b60003390506100f581610079565b50565b600080fd5b600073ffffffffffffffffffffffffffffffffffffffff82169050919050565b6000610128826100fd565b9050919050565b6101388161011d565b811461014357600080fd5b50565b6000813590506101558161012f565b92915050565b600060208284031215610171576101706100f8565b5b600061017f84828501610146565b9150509291505056fea264697066735822122094edccc4d9991cc767bbad9b7df39382b752cc8372a01ff8d06796277862ca6f64736f6c63430008090033",
  "linkReferences": {},
  "deployedLinkReferences": {}
}