{
  "_format": "hh-sol-artifact-1",
  "contractName": "Feature1",
  "sourceName": "contracts/FeatureContract1.sol",
  "abi": [
    {
      "anonymous": false,
      "inputs": [
        {
          "indexed": true,
          "internalType": "uint256",
          "name": "index",
          "type": "uint256"
        },
        {
          "indexed": true,
          "internalType": "bytes32",
          "name": "key",
          "type": "bytes32"
        }
      ],
      "name": "LogNew",
      "type": "event"
    },
    {
      "anonymous": false,
      "inputs": [
        {
          "indexed": true,
          "internalType": "uint256",
          "name": "index",
          "type": "uint256"
        },
        {
          "indexed": true,
          "internalType": "bytes32",
          "name": "key",
          "type": "bytes32"
        }
      ],
      "name": "LogRemove",
      "type": "event"
    },
    {
      "anonymous": false,
      "inputs": [
        {
          "indexed": true,
          "internalType": "uint256",
          "name": "index",
          "type": "uint256"
        },
        {
          "indexed": true,
          "internalType": "bytes32",
          "name": "key",
          "type": "bytes32"
        }
      ],
      "name": "LogUpdate",
      "type": "event"
    },
    {
      "inputs": [],
      "name": "count",
      "outputs": [
        {
          "internalType": "uint256",
          "name": "counter",
          "type": "uint256"
        }
      ],
      "stateMutability": "view",
      "type": "function"
    },
    {
      "inputs": [
        {
          "internalType": "bytes32",
          "name": "key",
          "type": "bytes32"
        }
      ],
      "name": "get",
      "outputs": [
        {
          "components": [
            {
              "internalType": "address",
              "name": "addedBy",
              "type": "address"
            },
            {
              "internalType": "address",
              "name": "target",
              "type": "address"
            },
            {
              "internalType": "bytes16",
              "name": "proofType",
              "type": "bytes16"
            },
            {
              "internalType": "bytes16",
              "name": "proofID",
              "type": "bytes16"
            },
            {
              "internalType": "bytes16",
              "name": "superceeds",
              "type": "bytes16"
            },
            {
              "internalType": "bytes32",
              "name": "label",
              "type": "bytes32"
            },
            {
              "internalType": "bytes",
              "name": "value",
              "type": "bytes"
            }
          ],
          "internalType": "struct FeatureLib.Value",
          "name": "value",
          "type": "tuple"
        }
      ],
      "stateMutability": "view",
      "type": "function"
    },
    {
      "inputs": [
        {
          "internalType": "uint256",
          "name": "index",
          "type": "uint256"
        }
      ],
      "name": "getAtIndex",
      "outputs": [
        {
          "components": [
            {
              "internalType": "address",
              "name": "addedBy",
              "type": "address"
            },
            {
              "internalType": "address",
              "name": "target",
              "type": "address"
            },
            {
              "internalType": "bytes16",
              "name": "proofType",
              "type": "bytes16"
            },
            {
              "internalType": "bytes16",
              "name": "proofID",
              "type": "bytes16"
            },
            {
              "internalType": "bytes16",
              "name": "superceeds",
              "type": "bytes16"
            },
            {
              "internalType": "bytes32",
              "name": "label",
              "type": "bytes32"
            },
            {
              "internalType": "bytes",
              "name": "value",
              "type": "bytes"
            }
          ],
          "internalType": "struct FeatureLib.Value",
          "name": "value",
          "type": "tuple"
        }
      ],
      "stateMutability": "view",
      "type": "function"
    },
    {
      "inputs": [
        {
          "components": [
            {
              "internalType": "address",
              "name": "addedBy",
              "type": "address"
            },
            {
              "internalType": "address",
              "name": "target",
              "type": "address"
            },
            {
              "internalType": "bytes16",
              "name": "proofType",
              "type": "bytes16"
            },
            {
              "internalType": "bytes16",
              "name": "proofID",
              "type": "bytes16"
            },
            {
              "internalType": "bytes16",
              "name": "superceeds",
              "type": "bytes16"
            },
            {
              "internalType": "bytes32",
              "name": "label",
              "type": "bytes32"
            },
            {
              "internalType": "bytes",
              "name": "value",
              "type": "bytes"
            }
          ],
          "internalType": "struct FeatureLib.Value",
          "name": "v",
          "type": "tuple"
        }
      ],
      "name": "getKey",
      "outputs": [
        {
          "internalType": "bytes32",
          "name": "key",
          "type": "bytes32"
        }
      ],
      "stateMutability": "view",
      "type": "function"
    },
    {
      "inputs": [
        {
          "internalType": "uint256",
          "name": "index",
          "type": "uint256"
        }
      ],
      "name": "getKeyAtIndex",
      "outputs": [
        {
          "internalType": "bytes32",
          "name": "key",
          "type": "bytes32"
        }
      ],
      "stateMutability": "view",
      "type": "function"
    },
    {
      "inputs": [
        {
          "components": [
            {
              "internalType": "address",
              "name": "addedBy",
              "type": "address"
            },
            {
              "internalType": "address",
              "name": "target",
              "type": "address"
            },
            {
              "internalType": "bytes16",
              "name": "proofType",
              "type": "bytes16"
            },
            {
              "internalType": "bytes16",
              "name": "proofID",
              "type": "bytes16"
            },
            {
              "internalType": "bytes16",
              "name": "superceeds",
              "type": "bytes16"
            },
            {
              "internalType": "bytes32",
              "name": "label",
              "type": "bytes32"
            },
            {
              "internalType": "bytes",
              "name": "value",
              "type": "bytes"
            }
          ],
          "internalType": "struct FeatureLib.Value",
          "name": "value",
          "type": "tuple"
        }
      ],
      "name": "insert",
      "outputs": [
        {
          "internalType": "uint256",
          "name": "index",
          "type": "uint256"
        }
      ],
      "stateMutability": "nonpayable",
      "type": "function"
    },
    {
      "inputs": [
        {
          "internalType": "bytes32",
          "name": "key",
          "type": "bytes32"
        }
      ],
      "name": "isInstance",
      "outputs": [
        {
          "internalType": "bool",
          "name": "isIndeed",
          "type": "bool"
        }
      ],
      "stateMutability": "view",
      "type": "function"
    },
    {
      "inputs": [
        {
          "internalType": "bytes32",
          "name": "key",
          "type": "bytes32"
        }
      ],
      "name": "remove",
      "outputs": [
        {
          "internalType": "uint256",
          "name": "index",
          "type": "uint256"
        }
      ],
      "stateMutability": "nonpayable",
      "type": "function"
    },
    {
      "inputs": [
        {
          "internalType": "bytes32",
          "name": "",
          "type": "bytes32"
        }
      ],
      "name": "values",
      "outputs": [
        {
          "internalType": "uint256",
          "name": "index",
          "type": "uint256"
        },
        {
          "components": [
            {
              "internalType": "address",
              "name": "addedBy",
              "type": "address"
            },
            {
              "internalType": "address",
              "name": "target",
              "type": "address"
            },
            {
              "internalType": "bytes16",
              "name": "proofType",
              "type": "bytes16"
            },
            {
              "internalType": "bytes16",
              "name": "proofID",
              "type": "bytes16"
            },
            {
              "internalType": "bytes16",
              "name": "superceeds",
              "type": "bytes16"
            },
            {
              "internalType": "bytes32",
              "name": "label",
              "type": "bytes32"
            },
            {
              "internalType": "bytes",
              "name": "value",
              "type": "bytes"
            }
          ],
          "internalType": "struct FeatureLib.Value",
          "name": "value",
          "type": "tuple"
        }
      ],
      "stateMutability": "view",
      "type": "function"
    }
  ],
  "bytecode": "0x6080604052600160f81b7effffffffffffffffffffffffffffffffffffffffffffffffffffffffffffff19166000806101000a8154816fffffffffffffffffffffffffffffffff021916908360801c021790555034801561005f57600080fd5b506115a98061006f6000396000f3fe608060405234801561001057600080fd5b50600436106100935760003560e01c8063663037ac11610066578063663037ac146101465780638eaa6ac01461017657806395bc2673146101a6578063ccc2195f146101d6578063f956acbb1461020757610093565b806306661abd146100985780631b26aafd146100b6578063240cfc79146100e657806335ee3c5c14610116575b600080fd5b6100a0610237565b6040516100ad9190610ca7565b60405180910390f35b6100d060048036038101906100cb9190610d02565b610244565b6040516100dd9190610ef9565b60405180910390f35b61010060048036038101906100fb91906111ae565b610264565b60405161010d9190611206565b60405180910390f35b610130600480360381019061012b9190611221565b6102c0565b60405161013d9190611269565b60405180910390f35b610160600480360381019061015b9190610d02565b610317565b60405161016d9190611206565b60405180910390f35b610190600480360381019061018b9190611221565b61033f565b60405161019d9190610ef9565b60405180910390f35b6101c060048036038101906101bb9190611221565b6105b6565b6040516101cd9190610ca7565b60405180910390f35b6101f060048036038101906101eb9190611221565b61071b565b6040516101fe929190611284565b60405180910390f35b610221600480360381019061021c91906111ae565b610948565b60405161022e9190610ca7565b60405180910390f35b6000600280549050905090565b61024c610b46565b61025d61025883610317565b61033f565b9050919050565b60008060009054906101000a900460801b82600001518360200151846040015185606001518660a001516040516020016102a39695949392919061133e565b604051602081830303815290604052805190602001209050919050565b60008060028054905014156102d85760009050610312565b816002600160008581526020019081526020016000206000015481548110610303576103026113ae565b5b90600052602060002001541490505b919050565b60006002828154811061032d5761032c6113ae565b5b90600052602060002001549050919050565b610347610b46565b610350826102c0565b61038f576040517f08c379a000000000000000000000000000000000000000000000000000000000815260040161038690611460565b60405180910390fd5b600160008381526020019081526020016000206001016040518060e00160405290816000820160009054906101000a900473ffffffffffffffffffffffffffffffffffffffff1673ffffffffffffffffffffffffffffffffffffffff1673ffffffffffffffffffffffffffffffffffffffff1681526020016001820160009054906101000a900473ffffffffffffffffffffffffffffffffffffffff1673ffffffffffffffffffffffffffffffffffffffff1673ffffffffffffffffffffffffffffffffffffffff1681526020016002820160009054906101000a900460801b6fffffffffffffffffffffffffffffffff19166fffffffffffffffffffffffffffffffff191681526020016002820160109054906101000a900460801b6fffffffffffffffffffffffffffffffff19166fffffffffffffffffffffffffffffffff191681526020016003820160009054906101000a900460801b6fffffffffffffffffffffffffffffffff19166fffffffffffffffffffffffffffffffff191681526020016004820154815260200160058201805461052d906114af565b80601f0160208091040260200160405190810160405280929190818152602001828054610559906114af565b80156105a65780601f1061057b576101008083540402835291602001916105a6565b820191906000526020600020905b81548152906001019060200180831161058957829003601f168201915b5050505050815250509050919050565b60006105c1826102c0565b610600576040517f08c379a00000000000000000000000000000000000000000000000000000000081526004016105f790611460565b60405180910390fd5b6000600160008481526020019081526020016000206000015490506000600260016002805490506106319190611510565b81548110610642576106416113ae565b5b906000526020600020015490508060028381548110610664576106636113ae565b5b9060005260206000200181905550816001600083815260200190815260200160002060000181905550600280548061069f5761069e611544565b5b6001900381819060005260206000200160009055905583827f3e5f95a7b68cd69de481447f1f138bdb428e7dab64062ddbc0f2176244bfc29060405160405180910390a380827f3449e6b4b8dbaeb23f4e62233d6dc67e4cf3316970d94664d05f381f7ae2d4b160405160405180910390a38192505050919050565b6001602052806000526040600020600091509050806000015490806001016040518060e00160405290816000820160009054906101000a900473ffffffffffffffffffffffffffffffffffffffff1673ffffffffffffffffffffffffffffffffffffffff1673ffffffffffffffffffffffffffffffffffffffff1681526020016001820160009054906101000a900473ffffffffffffffffffffffffffffffffffffffff1673ffffffffffffffffffffffffffffffffffffffff1673ffffffffffffffffffffffffffffffffffffffff1681526020016002820160009054906101000a900460801b6fffffffffffffffffffffffffffffffff19166fffffffffffffffffffffffffffffffff191681526020016002820160109054906101000a900460801b6fffffffffffffffffffffffffffffffff19166fffffffffffffffffffffffffffffffff191681526020016003820160009054906101000a900460801b6fffffffffffffffffffffffffffffffff19166fffffffffffffffffffffffffffffffff19168152602001600482015481526020016005820180546108c1906114af565b80601f01602080910402602001604051908101604052809291908181526020018280546108ed906114af565b801561093a5780601f1061090f5761010080835404028352916020019161093a565b820191906000526020600020905b81548152906001019060200180831161091d57829003601f168201915b505050505081525050905082565b60008061095483610264565b9050826001600083815260200190815260200160002060010160008201518160000160006101000a81548173ffffffffffffffffffffffffffffffffffffffff021916908373ffffffffffffffffffffffffffffffffffffffff16021790555060208201518160010160006101000a81548173ffffffffffffffffffffffffffffffffffffffff021916908373ffffffffffffffffffffffffffffffffffffffff16021790555060408201518160020160006101000a8154816fffffffffffffffffffffffffffffffff021916908360801c021790555060608201518160020160106101000a8154816fffffffffffffffffffffffffffffffff021916908360801c021790555060808201518160030160006101000a8154816fffffffffffffffffffffffffffffffff021916908360801c021790555060a0820151816004015560c0820151816005019080519060200190610ab1929190610beb565b509050506002805490506001600083815260200190815260200160002060000181905550600281908060018154018082558091505060019003906000526020600020016000909190919091505580827f7f48a163442147fea68a000073a5e1adf73434d806285469ea50af9c73e61c9960405160405180910390a36001600280549050610b3e9190611510565b915050919050565b6040518060e00160405280600073ffffffffffffffffffffffffffffffffffffffff168152602001600073ffffffffffffffffffffffffffffffffffffffff16815260200160006fffffffffffffffffffffffffffffffff1916815260200160006fffffffffffffffffffffffffffffffff1916815260200160006fffffffffffffffffffffffffffffffff1916815260200160008019168152602001606081525090565b828054610bf7906114af565b90600052602060002090601f016020900481019282610c195760008555610c60565b82601f10610c3257805160ff1916838001178555610c60565b82800160010185558215610c60579182015b82811115610c5f578251825591602001919060010190610c44565b5b509050610c6d9190610c71565b5090565b5b80821115610c8a576000816000905550600101610c72565b5090565b6000819050919050565b610ca181610c8e565b82525050565b6000602082019050610cbc6000830184610c98565b92915050565b6000604051905090565b600080fd5b600080fd5b610cdf81610c8e565b8114610cea57600080fd5b50565b600081359050610cfc81610cd6565b92915050565b600060208284031215610d1857610d17610ccc565b5b6000610d2684828501610ced565b91505092915050565b600073ffffffffffffffffffffffffffffffffffffffff82169050919050565b6000610d5a82610d2f565b9050919050565b610d6a81610d4f565b82525050565b60007fffffffffffffffffffffffffffffffff0000000000000000000000000000000082169050919050565b610da581610d70565b82525050565b6000819050919050565b610dbe81610dab565b82525050565b600081519050919050565b600082825260208201905092915050565b60005b83811015610dfe578082015181840152602081019050610de3565b83811115610e0d576000848401525b50505050565b6000601f19601f8301169050919050565b6000610e2f82610dc4565b610e398185610dcf565b9350610e49818560208601610de0565b610e5281610e13565b840191505092915050565b600060e083016000830151610e756000860182610d61565b506020830151610e886020860182610d61565b506040830151610e9b6040860182610d9c565b506060830151610eae6060860182610d9c565b506080830151610ec16080860182610d9c565b5060a0830151610ed460a0860182610db5565b5060c083015184820360c0860152610eec8282610e24565b9150508091505092915050565b60006020820190508181036000830152610f138184610e5d565b905092915050565b600080fd5b7f4e487b7100000000000000000000000000000000000000000000000000000000600052604160045260246000fd5b610f5882610e13565b810181811067ffffffffffffffff82111715610f7757610f76610f20565b5b80604052505050565b6000610f8a610cc2565b9050610f968282610f4f565b919050565b600080fd5b610fa981610d4f565b8114610fb457600080fd5b50565b600081359050610fc681610fa0565b92915050565b610fd581610d70565b8114610fe057600080fd5b50565b600081359050610ff281610fcc565b92915050565b61100181610dab565b811461100c57600080fd5b50565b60008135905061101e81610ff8565b92915050565b600080fd5b600080fd5b600067ffffffffffffffff82111561104957611048610f20565b5b61105282610e13565b9050602081019050919050565b82818337600083830152505050565b600061108161107c8461102e565b610f80565b90508281526020810184848401111561109d5761109c611029565b5b6110a884828561105f565b509392505050565b600082601f8301126110c5576110c4611024565b5b81356110d584826020860161106e565b91505092915050565b600060e082840312156110f4576110f3610f1b565b5b6110fe60e0610f80565b9050600061110e84828501610fb7565b600083015250602061112284828501610fb7565b602083015250604061113684828501610fe3565b604083015250606061114a84828501610fe3565b606083015250608061115e84828501610fe3565b60808301525060a06111728482850161100f565b60a08301525060c082013567ffffffffffffffff81111561119657611195610f9b565b5b6111a2848285016110b0565b60c08301525092915050565b6000602082840312156111c4576111c3610ccc565b5b600082013567ffffffffffffffff8111156111e2576111e1610cd1565b5b6111ee848285016110de565b91505092915050565b61120081610dab565b82525050565b600060208201905061121b60008301846111f7565b92915050565b60006020828403121561123757611236610ccc565b5b60006112458482850161100f565b91505092915050565b60008115159050919050565b6112638161124e565b82525050565b600060208201905061127e600083018461125a565b92915050565b60006040820190506112996000830185610c98565b81810360208301526112ab8184610e5d565b90509392505050565b6000819050919050565b6112cf6112ca82610d70565b6112b4565b82525050565b60008160601b9050919050565b60006112ed826112d5565b9050919050565b60006112ff826112e2565b9050919050565b61131761131282610d4f565b6112f4565b82525050565b6000819050919050565b61133861133382610dab565b61131d565b82525050565b600061134a82896112be565b60108201915061135a8288611306565b60148201915061136a8287611306565b60148201915061137a82866112be565b60108201915061138a82856112be565b60108201915061139a8284611327565b602082019150819050979650505050505050565b7f4e487b7100000000000000000000000000000000000000000000000000000000600052603260045260246000fd5b600082825260208201905092915050565b7f4b657920646f6573206e6f742062656c6f6e6720746f20616e20696e7374616e60008201527f6365000000000000000000000000000000000000000000000000000000000000602082015250565b600061144a6022836113dd565b9150611455826113ee565b604082019050919050565b600060208201905081810360008301526114798161143d565b9050919050565b7f4e487b7100000000000000000000000000000000000000000000000000000000600052602260045260246000fd5b600060028204905060018216806114c757607f821691505b602082108114156114db576114da611480565b5b50919050565b7f4e487b7100000000000000000000000000000000000000000000000000000000600052601160045260246000fd5b600061151b82610c8e565b915061152683610c8e565b925082821015611539576115386114e1565b5b828203905092915050565b7f4e487b7100000000000000000000000000000000000000000000000000000000600052603160045260246000fdfea26469706673582212209100c3a37906649dc87e18a6ffb823ee544ce851f6712a1569c04905ef6e81e464736f6c63430008090033",
  "linkReferences": {},
  "deployedLinkReferences": {}
}