{
  "_format": "hh-sol-artifact-1",
  "contractName": "IC_Singular",
  "sourceName": "contracts/IC_Singular.sol",
  "abi": [
    {
      "inputs": [],
      "name": "AbstractAccountsAddress",
      "outputs": [
        {
          "internalType": "address",
          "name": "",
          "type": "address"
        }
      ],
      "stateMutability": "view",
      "type": "function"
    },
    {
      "inputs": [],
      "name": "Features",
      "outputs": [
        {
          "internalType": "address",
          "name": "",
          "type": "address"
        }
      ],
      "stateMutability": "view",
      "type": "function"
    },
    {
      "inputs": [],
      "name": "Proofs",
      "outputs": [
        {
          "internalType": "address",
          "name": "",
          "type": "address"
        }
      ],
      "stateMutability": "view",
      "type": "function"
    },
    {
      "inputs": [
        {
          "internalType": "string",
          "name": "nickname",
          "type": "string"
        },
        {
          "internalType": "bytes16",
          "name": "featureType",
          "type": "bytes16"
        },
        {
          "internalType": "bytes16",
          "name": "proofType",
          "type": "bytes16"
        },
        {
          "internalType": "bytes16",
          "name": "proofID",
          "type": "bytes16"
        },
        {
          "internalType": "bytes32",
          "name": "label",
          "type": "bytes32"
        },
        {
          "internalType": "bytes",
          "name": "value",
          "type": "bytes"
        }
      ],
      "name": "addFeature",
      "outputs": [
        {
          "internalType": "uint256",
          "name": "featureID",
          "type": "uint256"
        }
      ],
      "stateMutability": "nonpayable",
      "type": "function"
    },
    {
      "inputs": [
        {
          "internalType": "bytes16",
          "name": "featureType",
          "type": "bytes16"
        },
        {
          "internalType": "address",
          "name": "contractAddr",
          "type": "address"
        }
      ],
      "name": "addFeatureType",
      "outputs": [
        {
          "internalType": "bool",
          "name": "success",
          "type": "bool"
        }
      ],
      "stateMutability": "nonpayable",
      "type": "function"
    },
    {
      "inputs": [
        {
          "internalType": "address",
          "name": "owner",
          "type": "address"
        },
        {
          "internalType": "string",
          "name": "nickname",
          "type": "string"
        }
      ],
      "name": "addNickname",
      "outputs": [
        {
          "internalType": "bool",
          "name": "success",
          "type": "bool"
        }
      ],
      "stateMutability": "nonpayable",
      "type": "function"
    },
    {
      "inputs": [
        {
          "internalType": "string",
          "name": "nickname",
          "type": "string"
        },
        {
          "internalType": "bytes16",
          "name": "proofType",
          "type": "bytes16"
        },
        {
          "internalType": "address",
          "name": "addedBy",
          "type": "address"
        },
        {
          "internalType": "address",
          "name": "target",
          "type": "address"
        },
        {
          "internalType": "uint256",
          "name": "validUntil",
          "type": "uint256"
        },
        {
          "internalType": "bytes",
          "name": "CID",
          "type": "bytes"
        }
      ],
      "name": "addProof",
      "outputs": [
        {
          "internalType": "uint256",
          "name": "proofID",
          "type": "uint256"
        }
      ],
      "stateMutability": "nonpayable",
      "type": "function"
    },
    {
      "inputs": [
        {
          "internalType": "bytes16",
          "name": "proofType",
          "type": "bytes16"
        },
        {
          "internalType": "address",
          "name": "contractAddr",
          "type": "address"
        }
      ],
      "name": "addProofType",
      "outputs": [
        {
          "internalType": "bool",
          "name": "success",
          "type": "bool"
        }
      ],
      "stateMutability": "nonpayable",
      "type": "function"
    },
    {
      "inputs": [
        {
          "internalType": "address",
          "name": "",
          "type": "address"
        }
      ],
      "name": "addressToName",
      "outputs": [
        {
          "internalType": "string",
          "name": "",
          "type": "string"
        }
      ],
      "stateMutability": "view",
      "type": "function"
    },
    {
      "inputs": [
        {
          "internalType": "bytes16",
          "name": "",
          "type": "bytes16"
        }
      ],
      "name": "featureContracts",
      "outputs": [
        {
          "internalType": "address",
          "name": "",
          "type": "address"
        }
      ],
      "stateMutability": "view",
      "type": "function"
    },
    {
      "inputs": [
        {
          "internalType": "string",
          "name": "",
          "type": "string"
        }
      ],
      "name": "nameToOwner",
      "outputs": [
        {
          "internalType": "address",
          "name": "",
          "type": "address"
        }
      ],
      "stateMutability": "view",
      "type": "function"
    },
    {
      "inputs": [
        {
          "internalType": "string",
          "name": "nickname",
          "type": "string"
        }
      ],
      "name": "notExtant",
      "outputs": [
        {
          "internalType": "bool",
          "name": "notThere",
          "type": "bool"
        }
      ],
      "stateMutability": "view",
      "type": "function"
    },
    {
      "inputs": [
        {
          "internalType": "bytes16",
          "name": "",
          "type": "bytes16"
        }
      ],
      "name": "proofContracts",
      "outputs": [
        {
          "internalType": "address",
          "name": "",
          "type": "address"
        }
      ],
      "stateMutability": "view",
      "type": "function"
    }
  ],
  "bytecode": "0x6080604052601a6000806101000a81548173ffffffffffffffffffffffffffffffffffffffff021916908373ffffffffffffffffffffffffffffffffffffffff16021790555034801561005157600080fd5b50611f8a806100616000396000f3fe608060405234801561001057600080fd5b50600436106100cf5760003560e01c806377ede6781161008c578063c1d311e811610066578063c1d311e814610260578063d791957b14610290578063e2a04b62146102c0578063e62944ee146102f0576100cf565b806377ede678146101d05780638df8006114610200578063b5a6015d14610230576100cf565b8063016a7662146100d4578063114ca9cc146101045780633683308a146101225780635580f689146101525780635d920b7d14610182578063694c2fc2146101a0575b600080fd5b6100ee60048036038101906100e9919061141f565b61030e565b6040516100fb91906114f3565b60405180910390f35b61010c61061f565b604051610119919061151d565b60405180910390f35b61013c6004803603810190610137919061156e565b610645565b60405161014991906114f3565b60405180910390f35b61016c60048036038101906101679190611633565b610a57565b6040516101799190611697565b60405180910390f35b61018a610ae5565b604051610197919061151d565b60405180910390f35b6101ba60048036038101906101b59190611633565b610b09565b6040516101c7919061151d565b60405180910390f35b6101ea60048036038101906101e591906116b2565b610b52565b6040516101f7919061151d565b60405180910390f35b61021a600480360381019061021591906116b2565b610b85565b604051610227919061151d565b60405180910390f35b61024a600480360381019061024591906116df565b610bb8565b6040516102579190611697565b60405180910390f35b61027a6004803603810190610275919061171f565b610c38565b6040516102879190611697565b60405180910390f35b6102aa60048036038101906102a591906116df565b610db6565b6040516102b79190611697565b60405180910390f35b6102da60048036038101906102d5919061177b565b610e36565b6040516102e79190611830565b60405180910390f35b6102f8610ed6565b604051610305919061151d565b60405180910390f35b600080600688604051610321919061188e565b908152602001604051809103902060009054906101000a900473ffffffffffffffffffffffffffffffffffffffff169050600073ffffffffffffffffffffffffffffffffffffffff168173ffffffffffffffffffffffffffffffffffffffff1614156103c2576040517f08c379a00000000000000000000000000000000000000000000000000000000081526004016103b9906118f1565b60405180910390fd5b600060046000896fffffffffffffffffffffffffffffffff19166fffffffffffffffffffffffffffffffff1916815260200190815260200160002060009054906101000a900473ffffffffffffffffffffffffffffffffffffffff169050600073ffffffffffffffffffffffffffffffffffffffff168173ffffffffffffffffffffffffffffffffffffffff161415610490576040517f08c379a00000000000000000000000000000000000000000000000000000000081526004016104879061195d565b60405180910390fd5b600081905060006040518060a001604052803373ffffffffffffffffffffffffffffffffffffffff1681526020018573ffffffffffffffffffffffffffffffffffffffff168152602001888152602001600060801b6fffffffffffffffffffffffffffffffff1916815260200187815250905060008273ffffffffffffffffffffffffffffffffffffffff16638df7c5ce836040518263ffffffff1660e01b815260040161053e9190611a75565b602060405180830381600087803b15801561055857600080fd5b505af115801561056c573d6000803e3d6000fd5b505050506040513d601f19601f820116820180604052508101906105909190611aac565b905080600860008773ffffffffffffffffffffffffffffffffffffffff1673ffffffffffffffffffffffffffffffffffffffff16815260200190815260200160002060008d6fffffffffffffffffffffffffffffffff19166fffffffffffffffffffffffffffffffff191681526020019081526020016000208190555080955050505050509695505050505050565b600160009054906101000a900473ffffffffffffffffffffffffffffffffffffffff1681565b600080600688604051610658919061188e565b908152602001604051809103902060009054906101000a900473ffffffffffffffffffffffffffffffffffffffff169050600073ffffffffffffffffffffffffffffffffffffffff168173ffffffffffffffffffffffffffffffffffffffff1614156106f9576040517f08c379a00000000000000000000000000000000000000000000000000000000081526004016106f0906118f1565b60405180910390fd5b600060036000896fffffffffffffffffffffffffffffffff19166fffffffffffffffffffffffffffffffff1916815260200190815260200160002060009054906101000a900473ffffffffffffffffffffffffffffffffffffffff169050600073ffffffffffffffffffffffffffffffffffffffff168173ffffffffffffffffffffffffffffffffffffffff1614156107c7576040517f08c379a00000000000000000000000000000000000000000000000000000000081526004016107be90611b25565b60405180910390fd5b600060046000896fffffffffffffffffffffffffffffffff19166fffffffffffffffffffffffffffffffff1916815260200190815260200160002060009054906101000a900473ffffffffffffffffffffffffffffffffffffffff169050600073ffffffffffffffffffffffffffffffffffffffff168173ffffffffffffffffffffffffffffffffffffffff161415610895576040517f08c379a000000000000000000000000000000000000000000000000000000000815260040161088c9061195d565b60405180910390fd5b600082905060006040518060e001604052803373ffffffffffffffffffffffffffffffffffffffff1681526020018673ffffffffffffffffffffffffffffffffffffffff1681526020018b6fffffffffffffffffffffffffffffffff191681526020018a6fffffffffffffffffffffffffffffffff19168152602001600060801b6fffffffffffffffffffffffffffffffff1916815260200189815260200188815250905060008273ffffffffffffffffffffffffffffffffffffffff1663f956acbb836040518263ffffffff1660e01b81526004016109759190611bf0565b602060405180830381600087803b15801561098f57600080fd5b505af11580156109a3573d6000803e3d6000fd5b505050506040513d601f19601f820116820180604052508101906109c79190611aac565b905080600760008873ffffffffffffffffffffffffffffffffffffffff1673ffffffffffffffffffffffffffffffffffffffff16815260200190815260200160002060008e6fffffffffffffffffffffffffffffffff19166fffffffffffffffffffffffffffffffff19168152602001908152602001600020819055508096505050505050509695505050505050565b600080600683604051610a6a919061188e565b908152602001604051809103902060009054906101000a900473ffffffffffffffffffffffffffffffffffffffff169050600073ffffffffffffffffffffffffffffffffffffffff168173ffffffffffffffffffffffffffffffffffffffff161415610ada576000915050610ae0565b60019150505b919050565b60008054906101000a900473ffffffffffffffffffffffffffffffffffffffff1681565b6006818051602081018201805184825260208301602085012081835280955050505050506000915054906101000a900473ffffffffffffffffffffffffffffffffffffffff1681565b60046020528060005260406000206000915054906101000a900473ffffffffffffffffffffffffffffffffffffffff1681565b60036020528060005260406000206000915054906101000a900473ffffffffffffffffffffffffffffffffffffffff1681565b60008160036000856fffffffffffffffffffffffffffffffff19166fffffffffffffffffffffffffffffffff1916815260200190815260200160002060006101000a81548173ffffffffffffffffffffffffffffffffffffffff021916908373ffffffffffffffffffffffffffffffffffffffff16021790555092915050565b6000610c4383610efc565b73ffffffffffffffffffffffffffffffffffffffff163373ffffffffffffffffffffffffffffffffffffffff1614610cb0576040517f08c379a0000000000000000000000000000000000000000000000000000000008152600401610ca790611c5e565b60405180910390fd5b60001515610cbd83610a57565b151514610cff576040517f08c379a0000000000000000000000000000000000000000000000000000000008152600401610cf690611cca565b60405180910390fd5b81600560008573ffffffffffffffffffffffffffffffffffffffff1673ffffffffffffffffffffffffffffffffffffffff1681526020019081526020016000209080519060200190610d52929190611095565b5082600683604051610d64919061188e565b908152602001604051809103902060006101000a81548173ffffffffffffffffffffffffffffffffffffffff021916908373ffffffffffffffffffffffffffffffffffffffff16021790555092915050565b60008160046000856fffffffffffffffffffffffffffffffff19166fffffffffffffffffffffffffffffffff1916815260200190815260200160002060006101000a81548173ffffffffffffffffffffffffffffffffffffffff021916908373ffffffffffffffffffffffffffffffffffffffff16021790555092915050565b60056020528060005260406000206000915090508054610e5590611d19565b80601f0160208091040260200160405190810160405280929190818152602001828054610e8190611d19565b8015610ece5780601f10610ea357610100808354040283529160200191610ece565b820191906000526020600020905b815481529060010190602001808311610eb157829003601f168201915b505050505081565b600260009054906101000a900473ffffffffffffffffffffffffffffffffffffffff1681565b60008082604051602401610f10919061151d565b6040516020818303038152906040527f5872fe45000000000000000000000000000000000000000000000000000000007bffffffffffffffffffffffffffffffffffffffffffffffffffffffff19166020820180517bffffffffffffffffffffffffffffffffffffffffffffffffffffffff8381831617835250505050905060008060008054906101000a900473ffffffffffffffffffffffffffffffffffffffff1673ffffffffffffffffffffffffffffffffffffffff1683604051610fd79190611d87565b6000604051808303816000865af19150503d8060008114611014576040519150601f19603f3d011682016040523d82523d6000602084013e611019565b606091505b50915091508161105e576040517f08c379a000000000000000000000000000000000000000000000000000000000815260040161105590611e10565b60405180910390fd5b6000818060200190518101906110749190611ea0565b90508080602001905181019061108a9190611f27565b945050505050919050565b8280546110a190611d19565b90600052602060002090601f0160209004810192826110c3576000855561110a565b82601f106110dc57805160ff191683800117855561110a565b8280016001018555821561110a579182015b828111156111095782518255916020019190600101906110ee565b5b509050611117919061111b565b5090565b5b8082111561113457600081600090555060010161111c565b5090565b6000604051905090565b600080fd5b600080fd5b600080fd5b600080fd5b6000601f19601f8301169050919050565b7f4e487b7100000000000000000000000000000000000000000000000000000000600052604160045260246000fd5b61119f82611156565b810181811067ffffffffffffffff821117156111be576111bd611167565b5b80604052505050565b60006111d1611138565b90506111dd8282611196565b919050565b600067ffffffffffffffff8211156111fd576111fc611167565b5b61120682611156565b9050602081019050919050565b82818337600083830152505050565b6000611235611230846111e2565b6111c7565b90508281526020810184848401111561125157611250611151565b5b61125c848285611213565b509392505050565b600082601f8301126112795761127861114c565b5b8135611289848260208601611222565b91505092915050565b60007fffffffffffffffffffffffffffffffff0000000000000000000000000000000082169050919050565b6112c781611292565b81146112d257600080fd5b50565b6000813590506112e4816112be565b92915050565b600073ffffffffffffffffffffffffffffffffffffffff82169050919050565b6000611315826112ea565b9050919050565b6113258161130a565b811461133057600080fd5b50565b6000813590506113428161131c565b92915050565b6000819050919050565b61135b81611348565b811461136657600080fd5b50565b60008135905061137881611352565b92915050565b600067ffffffffffffffff82111561139957611398611167565b5b6113a282611156565b9050602081019050919050565b60006113c26113bd8461137e565b6111c7565b9050828152602081018484840111156113de576113dd611151565b5b6113e9848285611213565b509392505050565b600082601f8301126114065761140561114c565b5b81356114168482602086016113af565b91505092915050565b60008060008060008060c0878903121561143c5761143b611142565b5b600087013567ffffffffffffffff81111561145a57611459611147565b5b61146689828a01611264565b965050602061147789828a016112d5565b955050604061148889828a01611333565b945050606061149989828a01611333565b93505060806114aa89828a01611369565b92505060a087013567ffffffffffffffff8111156114cb576114ca611147565b5b6114d789828a016113f1565b9150509295509295509295565b6114ed81611348565b82525050565b600060208201905061150860008301846114e4565b92915050565b6115178161130a565b82525050565b6000602082019050611532600083018461150e565b92915050565b6000819050919050565b61154b81611538565b811461155657600080fd5b50565b60008135905061156881611542565b92915050565b60008060008060008060c0878903121561158b5761158a611142565b5b600087013567ffffffffffffffff8111156115a9576115a8611147565b5b6115b589828a01611264565b96505060206115c689828a016112d5565b95505060406115d789828a016112d5565b94505060606115e889828a016112d5565b93505060806115f989828a01611559565b92505060a087013567ffffffffffffffff81111561161a57611619611147565b5b61162689828a016113f1565b9150509295509295509295565b60006020828403121561164957611648611142565b5b600082013567ffffffffffffffff81111561166757611666611147565b5b61167384828501611264565b91505092915050565b60008115159050919050565b6116918161167c565b82525050565b60006020820190506116ac6000830184611688565b92915050565b6000602082840312156116c8576116c7611142565b5b60006116d6848285016112d5565b91505092915050565b600080604083850312156116f6576116f5611142565b5b6000611704858286016112d5565b925050602061171585828601611333565b9150509250929050565b6000806040838503121561173657611735611142565b5b600061174485828601611333565b925050602083013567ffffffffffffffff81111561176557611764611147565b5b61177185828601611264565b9150509250929050565b60006020828403121561179157611790611142565b5b600061179f84828501611333565b91505092915050565b600081519050919050565b600082825260208201905092915050565b60005b838110156117e25780820151818401526020810190506117c7565b838111156117f1576000848401525b50505050565b6000611802826117a8565b61180c81856117b3565b935061181c8185602086016117c4565b61182581611156565b840191505092915050565b6000602082019050818103600083015261184a81846117f7565b905092915050565b600081905092915050565b6000611868826117a8565b6118728185611852565b93506118828185602086016117c4565b80840191505092915050565b600061189a828461185d565b915081905092915050565b7f4f776e657220646f6573206e6f74206578697374000000000000000000000000600082015250565b60006118db6014836117b3565b91506118e6826118a5565b602082019050919050565b6000602082019050818103600083015261190a816118ce565b9050919050565b7f50726f6f66207479706520646f6573206e6f7420657869737400000000000000600082015250565b60006119476019836117b3565b915061195282611911565b602082019050919050565b600060208201905081810360008301526119768161193a565b9050919050565b6119868161130a565b82525050565b61199581611348565b82525050565b6119a481611292565b82525050565b600081519050919050565b600082825260208201905092915050565b60006119d1826119aa565b6119db81856119b5565b93506119eb8185602086016117c4565b6119f481611156565b840191505092915050565b600060a083016000830151611a17600086018261197d565b506020830151611a2a602086018261197d565b506040830151611a3d604086018261198c565b506060830151611a50606086018261199b565b5060808301518482036080860152611a6882826119c6565b9150508091505092915050565b60006020820190508181036000830152611a8f81846119ff565b905092915050565b600081519050611aa681611352565b92915050565b600060208284031215611ac257611ac1611142565b5b6000611ad084828501611a97565b91505092915050565b7f46656174757265207479706520646f6573206e6f742065786973740000000000600082015250565b6000611b0f601b836117b3565b9150611b1a82611ad9565b602082019050919050565b60006020820190508181036000830152611b3e81611b02565b9050919050565b611b4e81611538565b82525050565b600060e083016000830151611b6c600086018261197d565b506020830151611b7f602086018261197d565b506040830151611b92604086018261199b565b506060830151611ba5606086018261199b565b506080830151611bb8608086018261199b565b5060a0830151611bcb60a0860182611b45565b5060c083015184820360c0860152611be382826119c6565b9150508091505092915050565b60006020820190508181036000830152611c0a8184611b54565b905092915050565b7f4162737472616374206163636f756e74206e6f7420617574686f72697a656400600082015250565b6000611c48601f836117b3565b9150611c5382611c12565b602082019050919050565b60006020820190508181036000830152611c7781611c3b565b9050919050565b7f4e69636b6e616d6520616c726561647920657869737473000000000000000000600082015250565b6000611cb46017836117b3565b9150611cbf82611c7e565b602082019050919050565b60006020820190508181036000830152611ce381611ca7565b9050919050565b7f4e487b7100000000000000000000000000000000000000000000000000000000600052602260045260246000fd5b60006002820490506001821680611d3157607f821691505b60208210811415611d4557611d44611cea565b5b50919050565b600081905092915050565b6000611d61826119aa565b611d6b8185611d4b565b9350611d7b8185602086016117c4565b80840191505092915050565b6000611d938284611d56565b915081905092915050565b7f414120707265636f6d70696c65206765744163636f756e74416464726573732060008201527f6661696c65640000000000000000000000000000000000000000000000000000602082015250565b6000611dfa6026836117b3565b9150611e0582611d9e565b604082019050919050565b60006020820190508181036000830152611e2981611ded565b9050919050565b6000611e43611e3e8461137e565b6111c7565b905082815260208101848484011115611e5f57611e5e611151565b5b611e6a8482856117c4565b509392505050565b600082601f830112611e8757611e8661114c565b5b8151611e97848260208601611e30565b91505092915050565b600060208284031215611eb657611eb5611142565b5b600082015167ffffffffffffffff811115611ed457611ed3611147565b5b611ee084828501611e72565b91505092915050565b6000611ef4826112ea565b9050919050565b611f0481611ee9565b8114611f0f57600080fd5b50565b600081519050611f2181611efb565b92915050565b600060208284031215611f3d57611f3c611142565b5b6000611f4b84828501611f12565b9150509291505056fea26469706673582212201aaba630d9996c858c1301e1de9c535fa7d78bdde1a3bfce4a7643b88444f5de64736f6c63430008090033",
  "linkReferences": {},
  "deployedLinkReferences": {}
}