{
  "_format": "hh-sol-artifact-1",
  "contractName": "IC_Singular",
  "sourceName": "contracts/IC_Singular.sol",
  "abi": [
    {
      "inputs": [],
      "name": "AbstractAccountsAddress",
      "outputs": [
        {
          "internalType": "address",
          "name": "",
          "type": "address"
        }
      ],
      "stateMutability": "view",
      "type": "function"
    },
    {
      "inputs": [],
      "name": "Features",
      "outputs": [
        {
          "internalType": "address",
          "name": "",
          "type": "address"
        }
      ],
      "stateMutability": "view",
      "type": "function"
    },
    {
      "inputs": [],
      "name": "Proofs",
      "outputs": [
        {
          "internalType": "address",
          "name": "",
          "type": "address"
        }
      ],
      "stateMutability": "view",
      "type": "function"
    },
    {
      "inputs": [
        {
          "internalType": "string",
          "name": "nickname",
          "type": "string"
        },
        {
          "internalType": "bytes16",
          "name": "featureType",
          "type": "bytes16"
        },
        {
          "internalType": "bytes16",
          "name": "proofType",
          "type": "bytes16"
        },
        {
          "internalType": "bytes16",
          "name": "proofID",
          "type": "bytes16"
        },
        {
          "internalType": "bytes32",
          "name": "label",
          "type": "bytes32"
        },
        {
          "internalType": "bytes",
          "name": "value",
          "type": "bytes"
        }
      ],
      "name": "addFeature",
      "outputs": [
        {
          "internalType": "uint256",
          "name": "featureID",
          "type": "uint256"
        }
      ],
      "stateMutability": "nonpayable",
      "type": "function"
    },
    {
      "inputs": [
        {
          "internalType": "bytes16",
          "name": "featureType",
          "type": "bytes16"
        },
        {
          "internalType": "address",
          "name": "contractAddr",
          "type": "address"
        }
      ],
      "name": "addFeatureType",
      "outputs": [
        {
          "internalType": "bool",
          "name": "success",
          "type": "bool"
        }
      ],
      "stateMutability": "nonpayable",
      "type": "function"
    },
    {
      "inputs": [
        {
          "internalType": "address",
          "name": "owner",
          "type": "address"
        },
        {
          "internalType": "string",
          "name": "nickname",
          "type": "string"
        }
      ],
      "name": "addNickname",
      "outputs": [
        {
          "internalType": "bool",
          "name": "success",
          "type": "bool"
        }
      ],
      "stateMutability": "nonpayable",
      "type": "function"
    },
    {
      "inputs": [
        {
          "internalType": "string",
          "name": "nickname",
          "type": "string"
        },
        {
          "internalType": "bytes16",
          "name": "proofType",
          "type": "bytes16"
        },
        {
          "internalType": "address",
          "name": "addedBy",
          "type": "address"
        },
        {
          "internalType": "address",
          "name": "target",
          "type": "address"
        },
        {
          "internalType": "uint256",
          "name": "validUntil",
          "type": "uint256"
        },
        {
          "internalType": "bytes",
          "name": "CID",
          "type": "bytes"
        }
      ],
      "name": "addProof",
      "outputs": [
        {
          "internalType": "uint256",
          "name": "proofID",
          "type": "uint256"
        }
      ],
      "stateMutability": "nonpayable",
      "type": "function"
    },
    {
      "inputs": [
        {
          "internalType": "bytes16",
          "name": "proofType",
          "type": "bytes16"
        },
        {
          "internalType": "address",
          "name": "contractAddr",
          "type": "address"
        }
      ],
      "name": "addProofType",
      "outputs": [
        {
          "internalType": "bool",
          "name": "success",
          "type": "bool"
        }
      ],
      "stateMutability": "nonpayable",
      "type": "function"
    },
    {
      "inputs": [
        {
          "internalType": "string",
          "name": "nickname",
          "type": "string"
        }
      ],
      "name": "notExtant",
      "outputs": [
        {
          "internalType": "bool",
          "name": "notThere",
          "type": "bool"
        }
      ],
      "stateMutability": "view",
      "type": "function"
    }
  ],
  "bytecode": "0x6080604052601a6000806101000a81548173ffffffffffffffffffffffffffffffffffffffff021916908373ffffffffffffffffffffffffffffffffffffffff16021790555034801561005157600080fd5b50611c8a806100616000396000f3fe608060405234801561001057600080fd5b50600436106100935760003560e01c80635d920b7d116100665780635d920b7d14610146578063b5a6015d14610164578063c1d311e814610194578063d791957b146101c4578063e62944ee146101f457610093565b8063016a766214610098578063114ca9cc146100c85780633683308a146100e65780635580f68914610116575b600080fd5b6100b260048036038101906100ad91906111d4565b610212565b6040516100bf91906112a8565b60405180910390f35b6100d0610523565b6040516100dd91906112d2565b60405180910390f35b61010060048036038101906100fb9190611323565b610549565b60405161010d91906112a8565b60405180910390f35b610130600480360381019061012b91906113e8565b61095b565b60405161013d919061144c565b60405180910390f35b61014e6109e9565b60405161015b91906112d2565b60405180910390f35b61017e60048036038101906101799190611467565b610a0d565b60405161018b919061144c565b60405180910390f35b6101ae60048036038101906101a991906114a7565b610a8d565b6040516101bb919061144c565b60405180910390f35b6101de60048036038101906101d99190611467565b610c0b565b6040516101eb919061144c565b60405180910390f35b6101fc610c8b565b60405161020991906112d2565b60405180910390f35b600080600688604051610225919061157d565b908152602001604051809103902060009054906101000a900473ffffffffffffffffffffffffffffffffffffffff169050600073ffffffffffffffffffffffffffffffffffffffff168173ffffffffffffffffffffffffffffffffffffffff1614156102c6576040517f08c379a00000000000000000000000000000000000000000000000000000000081526004016102bd906115f1565b60405180910390fd5b600060046000896fffffffffffffffffffffffffffffffff19166fffffffffffffffffffffffffffffffff1916815260200190815260200160002060009054906101000a900473ffffffffffffffffffffffffffffffffffffffff169050600073ffffffffffffffffffffffffffffffffffffffff168173ffffffffffffffffffffffffffffffffffffffff161415610394576040517f08c379a000000000000000000000000000000000000000000000000000000000815260040161038b9061165d565b60405180910390fd5b600081905060006040518060a001604052803373ffffffffffffffffffffffffffffffffffffffff1681526020018573ffffffffffffffffffffffffffffffffffffffff168152602001888152602001600060801b6fffffffffffffffffffffffffffffffff1916815260200187815250905060008273ffffffffffffffffffffffffffffffffffffffff16638df7c5ce836040518263ffffffff1660e01b81526004016104429190611775565b602060405180830381600087803b15801561045c57600080fd5b505af1158015610470573d6000803e3d6000fd5b505050506040513d601f19601f8201168201806040525081019061049491906117ac565b905080600860008773ffffffffffffffffffffffffffffffffffffffff1673ffffffffffffffffffffffffffffffffffffffff16815260200190815260200160002060008d6fffffffffffffffffffffffffffffffff19166fffffffffffffffffffffffffffffffff191681526020019081526020016000208190555080955050505050509695505050505050565b600160009054906101000a900473ffffffffffffffffffffffffffffffffffffffff1681565b60008060068860405161055c919061157d565b908152602001604051809103902060009054906101000a900473ffffffffffffffffffffffffffffffffffffffff169050600073ffffffffffffffffffffffffffffffffffffffff168173ffffffffffffffffffffffffffffffffffffffff1614156105fd576040517f08c379a00000000000000000000000000000000000000000000000000000000081526004016105f4906115f1565b60405180910390fd5b600060036000896fffffffffffffffffffffffffffffffff19166fffffffffffffffffffffffffffffffff1916815260200190815260200160002060009054906101000a900473ffffffffffffffffffffffffffffffffffffffff169050600073ffffffffffffffffffffffffffffffffffffffff168173ffffffffffffffffffffffffffffffffffffffff1614156106cb576040517f08c379a00000000000000000000000000000000000000000000000000000000081526004016106c290611825565b60405180910390fd5b600060046000896fffffffffffffffffffffffffffffffff19166fffffffffffffffffffffffffffffffff1916815260200190815260200160002060009054906101000a900473ffffffffffffffffffffffffffffffffffffffff169050600073ffffffffffffffffffffffffffffffffffffffff168173ffffffffffffffffffffffffffffffffffffffff161415610799576040517f08c379a00000000000000000000000000000000000000000000000000000000081526004016107909061165d565b60405180910390fd5b600082905060006040518060e001604052803373ffffffffffffffffffffffffffffffffffffffff1681526020018673ffffffffffffffffffffffffffffffffffffffff1681526020018b6fffffffffffffffffffffffffffffffff191681526020018a6fffffffffffffffffffffffffffffffff19168152602001600060801b6fffffffffffffffffffffffffffffffff1916815260200189815260200188815250905060008273ffffffffffffffffffffffffffffffffffffffff1663f956acbb836040518263ffffffff1660e01b815260040161087991906118f0565b602060405180830381600087803b15801561089357600080fd5b505af11580156108a7573d6000803e3d6000fd5b505050506040513d601f19601f820116820180604052508101906108cb91906117ac565b905080600760008873ffffffffffffffffffffffffffffffffffffffff1673ffffffffffffffffffffffffffffffffffffffff16815260200190815260200160002060008e6fffffffffffffffffffffffffffffffff19166fffffffffffffffffffffffffffffffff19168152602001908152602001600020819055508096505050505050509695505050505050565b60008060068360405161096e919061157d565b908152602001604051809103902060009054906101000a900473ffffffffffffffffffffffffffffffffffffffff169050600073ffffffffffffffffffffffffffffffffffffffff168173ffffffffffffffffffffffffffffffffffffffff1614156109de5760009150506109e4565b60019150505b919050565b60008054906101000a900473ffffffffffffffffffffffffffffffffffffffff1681565b60008160036000856fffffffffffffffffffffffffffffffff19166fffffffffffffffffffffffffffffffff1916815260200190815260200160002060006101000a81548173ffffffffffffffffffffffffffffffffffffffff021916908373ffffffffffffffffffffffffffffffffffffffff16021790555092915050565b6000610a9883610cb1565b73ffffffffffffffffffffffffffffffffffffffff163373ffffffffffffffffffffffffffffffffffffffff1614610b05576040517f08c379a0000000000000000000000000000000000000000000000000000000008152600401610afc9061195e565b60405180910390fd5b60001515610b128361095b565b151514610b54576040517f08c379a0000000000000000000000000000000000000000000000000000000008152600401610b4b906119ca565b60405180910390fd5b81600560008573ffffffffffffffffffffffffffffffffffffffff1673ffffffffffffffffffffffffffffffffffffffff1681526020019081526020016000209080519060200190610ba7929190610e4a565b5082600683604051610bb9919061157d565b908152602001604051809103902060006101000a81548173ffffffffffffffffffffffffffffffffffffffff021916908373ffffffffffffffffffffffffffffffffffffffff16021790555092915050565b60008160046000856fffffffffffffffffffffffffffffffff19166fffffffffffffffffffffffffffffffff1916815260200190815260200160002060006101000a81548173ffffffffffffffffffffffffffffffffffffffff021916908373ffffffffffffffffffffffffffffffffffffffff16021790555092915050565b600260009054906101000a900473ffffffffffffffffffffffffffffffffffffffff1681565b60008082604051602401610cc591906112d2565b6040516020818303038152906040527f5872fe45000000000000000000000000000000000000000000000000000000007bffffffffffffffffffffffffffffffffffffffffffffffffffffffff19166020820180517bffffffffffffffffffffffffffffffffffffffffffffffffffffffff8381831617835250505050905060008060008054906101000a900473ffffffffffffffffffffffffffffffffffffffff1673ffffffffffffffffffffffffffffffffffffffff1683604051610d8c9190611a26565b6000604051808303816000865af19150503d8060008114610dc9576040519150601f19603f3d011682016040523d82523d6000602084013e610dce565b606091505b509150915081610e13576040517f08c379a0000000000000000000000000000000000000000000000000000000008152600401610e0a90611aaf565b60405180910390fd5b600081806020019051810190610e299190611b3f565b905080806020019051810190610e3f9190611bc6565b945050505050919050565b828054610e5690611c22565b90600052602060002090601f016020900481019282610e785760008555610ebf565b82601f10610e9157805160ff1916838001178555610ebf565b82800160010185558215610ebf579182015b82811115610ebe578251825591602001919060010190610ea3565b5b509050610ecc9190610ed0565b5090565b5b80821115610ee9576000816000905550600101610ed1565b5090565b6000604051905090565b600080fd5b600080fd5b600080fd5b600080fd5b6000601f19601f8301169050919050565b7f4e487b7100000000000000000000000000000000000000000000000000000000600052604160045260246000fd5b610f5482610f0b565b810181811067ffffffffffffffff82111715610f7357610f72610f1c565b5b80604052505050565b6000610f86610eed565b9050610f928282610f4b565b919050565b600067ffffffffffffffff821115610fb257610fb1610f1c565b5b610fbb82610f0b565b9050602081019050919050565b82818337600083830152505050565b6000610fea610fe584610f97565b610f7c565b90508281526020810184848401111561100657611005610f06565b5b611011848285610fc8565b509392505050565b600082601f83011261102e5761102d610f01565b5b813561103e848260208601610fd7565b91505092915050565b60007fffffffffffffffffffffffffffffffff0000000000000000000000000000000082169050919050565b61107c81611047565b811461108757600080fd5b50565b60008135905061109981611073565b92915050565b600073ffffffffffffffffffffffffffffffffffffffff82169050919050565b60006110ca8261109f565b9050919050565b6110da816110bf565b81146110e557600080fd5b50565b6000813590506110f7816110d1565b92915050565b6000819050919050565b611110816110fd565b811461111b57600080fd5b50565b60008135905061112d81611107565b92915050565b600067ffffffffffffffff82111561114e5761114d610f1c565b5b61115782610f0b565b9050602081019050919050565b600061117761117284611133565b610f7c565b90508281526020810184848401111561119357611192610f06565b5b61119e848285610fc8565b509392505050565b600082601f8301126111bb576111ba610f01565b5b81356111cb848260208601611164565b91505092915050565b60008060008060008060c087890312156111f1576111f0610ef7565b5b600087013567ffffffffffffffff81111561120f5761120e610efc565b5b61121b89828a01611019565b965050602061122c89828a0161108a565b955050604061123d89828a016110e8565b945050606061124e89828a016110e8565b935050608061125f89828a0161111e565b92505060a087013567ffffffffffffffff8111156112805761127f610efc565b5b61128c89828a016111a6565b9150509295509295509295565b6112a2816110fd565b82525050565b60006020820190506112bd6000830184611299565b92915050565b6112cc816110bf565b82525050565b60006020820190506112e760008301846112c3565b92915050565b6000819050919050565b611300816112ed565b811461130b57600080fd5b50565b60008135905061131d816112f7565b92915050565b60008060008060008060c087890312156113405761133f610ef7565b5b600087013567ffffffffffffffff81111561135e5761135d610efc565b5b61136a89828a01611019565b965050602061137b89828a0161108a565b955050604061138c89828a0161108a565b945050606061139d89828a0161108a565b93505060806113ae89828a0161130e565b92505060a087013567ffffffffffffffff8111156113cf576113ce610efc565b5b6113db89828a016111a6565b9150509295509295509295565b6000602082840312156113fe576113fd610ef7565b5b600082013567ffffffffffffffff81111561141c5761141b610efc565b5b61142884828501611019565b91505092915050565b60008115159050919050565b61144681611431565b82525050565b6000602082019050611461600083018461143d565b92915050565b6000806040838503121561147e5761147d610ef7565b5b600061148c8582860161108a565b925050602061149d858286016110e8565b9150509250929050565b600080604083850312156114be576114bd610ef7565b5b60006114cc858286016110e8565b925050602083013567ffffffffffffffff8111156114ed576114ec610efc565b5b6114f985828601611019565b9150509250929050565b600081519050919050565b600081905092915050565b60005b8381101561153757808201518184015260208101905061151c565b83811115611546576000848401525b50505050565b600061155782611503565b611561818561150e565b9350611571818560208601611519565b80840191505092915050565b6000611589828461154c565b915081905092915050565b600082825260208201905092915050565b7f4f776e657220646f6573206e6f74206578697374000000000000000000000000600082015250565b60006115db601483611594565b91506115e6826115a5565b602082019050919050565b6000602082019050818103600083015261160a816115ce565b9050919050565b7f50726f6f66207479706520646f6573206e6f7420657869737400000000000000600082015250565b6000611647601983611594565b915061165282611611565b602082019050919050565b600060208201905081810360008301526116768161163a565b9050919050565b611686816110bf565b82525050565b611695816110fd565b82525050565b6116a481611047565b82525050565b600081519050919050565b600082825260208201905092915050565b60006116d1826116aa565b6116db81856116b5565b93506116eb818560208601611519565b6116f481610f0b565b840191505092915050565b600060a083016000830151611717600086018261167d565b50602083015161172a602086018261167d565b50604083015161173d604086018261168c565b506060830151611750606086018261169b565b506080830151848203608086015261176882826116c6565b9150508091505092915050565b6000602082019050818103600083015261178f81846116ff565b905092915050565b6000815190506117a681611107565b92915050565b6000602082840312156117c2576117c1610ef7565b5b60006117d084828501611797565b91505092915050565b7f46656174757265207479706520646f6573206e6f742065786973740000000000600082015250565b600061180f601b83611594565b915061181a826117d9565b602082019050919050565b6000602082019050818103600083015261183e81611802565b9050919050565b61184e816112ed565b82525050565b600060e08301600083015161186c600086018261167d565b50602083015161187f602086018261167d565b506040830151611892604086018261169b565b5060608301516118a5606086018261169b565b5060808301516118b8608086018261169b565b5060a08301516118cb60a0860182611845565b5060c083015184820360c08601526118e382826116c6565b9150508091505092915050565b6000602082019050818103600083015261190a8184611854565b905092915050565b7f4162737472616374206163636f756e74206e6f7420617574686f72697a656400600082015250565b6000611948601f83611594565b915061195382611912565b602082019050919050565b600060208201905081810360008301526119778161193b565b9050919050565b7f4e69636b6e616d6520616c726561647920657869737473000000000000000000600082015250565b60006119b4601783611594565b91506119bf8261197e565b602082019050919050565b600060208201905081810360008301526119e3816119a7565b9050919050565b600081905092915050565b6000611a00826116aa565b611a0a81856119ea565b9350611a1a818560208601611519565b80840191505092915050565b6000611a3282846119f5565b915081905092915050565b7f414120707265636f6d70696c65206765744163636f756e74416464726573732060008201527f6661696c65640000000000000000000000000000000000000000000000000000602082015250565b6000611a99602683611594565b9150611aa482611a3d565b604082019050919050565b60006020820190508181036000830152611ac881611a8c565b9050919050565b6000611ae2611add84611133565b610f7c565b905082815260208101848484011115611afe57611afd610f06565b5b611b09848285611519565b509392505050565b600082601f830112611b2657611b25610f01565b5b8151611b36848260208601611acf565b91505092915050565b600060208284031215611b5557611b54610ef7565b5b600082015167ffffffffffffffff811115611b7357611b72610efc565b5b611b7f84828501611b11565b91505092915050565b6000611b938261109f565b9050919050565b611ba381611b88565b8114611bae57600080fd5b50565b600081519050611bc081611b9a565b92915050565b600060208284031215611bdc57611bdb610ef7565b5b6000611bea84828501611bb1565b91505092915050565b7f4e487b7100000000000000000000000000000000000000000000000000000000600052602260045260246000fd5b60006002820490506001821680611c3a57607f821691505b60208210811415611c4e57611c4d611bf3565b5b5091905056fea264697066735822122024da3ba9bf48ed5935847e274f9d34fff6079645dd285c64da8ec526b4d0deb664736f6c63430008090033",
  "linkReferences": {},
  "deployedLinkReferences": {}
}